:100000000C94E4000C9478150C94A5150C940C0138
:100010000C940C010C940C010C940C010C940C012C
:100020000C940C010C940C010C940C010C940C011C
:100030000C940C010C940C010C940C010C940C010C
:100040000C94D2150C940C010C9462160C940C01B7
:100050000C940C010C940C010C940C010C940C01EC
:100060000C940C010C940C0139323300636979440F
:1000700046426935593672734642356B344E426595
:100080003466000102030405060708090A0B0C0D7B
:100090000000000000000000000000000000000060
:1000A0000000000000000000000000000000000050
:1000B00000000000000000485454502F312E312021
:1000C000323030204F4B0D0A436F6E74656E742DC5
:1000D000547970653A20746578742F68746D6C0D6E
:1000E0000A0D0A3C63656E7465723E3C68313E4899
:1000F000656C6C6F20576F726C6421212049206100
:100100006D204D6174742773205769536869656C5D
:10011000642E20596F75276C6C2066696E6420749C
:1001200068697320636F646520696E207468652058
:1001300050524F474D454D20696E20746865206DC3
:1001400061696E2041726475696E6F20736B6574AE
:1001500063682E3C2F68313E3C666F726D206D6582
:1001600074686F643D226765742220616374696FEF
:100170006E3D2230223E546F67676C65204C4544CB
:100180003A3C696E70757420747970653D227375A0
:10019000626D697422206E616D653D223022207689
:1001A000616C75653D224C454431223E3C2F696EA1
:1001B0007075743E3C2F666F726D3E3C2F63656EAA
:1001C0007465723E0000AB1711241FBECFEFD8E05C
:1001D000DEBFCDBF11E0A0E0B1E0EAE1F3E302C091
:1001E00005900D92A23EB107D9F715E0A2EEB1E05D
:1001F00001C01D92A533B107E1F711E0C8ECD1E0D1
:1002000004C02297FE010E948719C63CD107C9F796
:100210000E944E150C948B190C940000FB01DC011C
:1002200002C005900D9241505040D8F70895FC014E
:1002300005900020E9F7809590958E0F9F1F0895F7
:10024000FB01DC0102C001900D9241505040D8F7F3
:100250000895DC0101C06D9341505040E0F70895CE
:10026000FB01DC014150504030F08D91019080192C
:1002700019F40020B9F7881B990B08950E941A16EB
:10028000089590E05EE34EE23FE32FEF5093E901E3
:100290001092EA014093EB012A98A9EEB1E0FD012A
:1002A00080818EBD0DB407FEFDCF8EB5819381E0B8
:1002B000EC3EF807A9F72A9A3093E901992311F047
:1002C0008FE001C080E88093EA012093EB012A9837
:1002D0008C918EBD0DB407FEFDCF8EB58D9381E060
:1002E000AC3EB807A9F72A9A913011F091E0CECF31
:1002F0008EE38093E9011092EA018AE28093EB0198
:100300002A9820E030E0F901E751FE4F80818EBD50
:100310000DB407FEFDCF8EB580832F5F3F4F233096
:10032000310589F72A9A9FE79093E9011092EA0133
:100330001092EB012A9820E030E0F901E751FE4FDE
:1003400080818EBD0DB407FEFDCF8EB580832F5FFB
:100350003F4F2330310589F72A9A8091EA0184FFC3
:10036000E3CF9FE69093E9011092EA011092EB012E
:100370002A9820E030E0F901E751FE4F80818EBDE0
:100380000DB407FEFDCF8EB580832F5F3F4F233026
:10039000310589F72A9A8091EA01882321F4809116
:1003A000EB018823F9F208958EE68093E90110921B
:1003B000EA011092EB012A98A9EEB1E0FD018081DB
:1003C0008EBD0DB407FEFDCF8EB5819381E0EC3E6E
:1003D000F807A9F72A9A8DE28093E9018FEF8093BD
:1003E000EA018093EB01108211822A988C918EBDD4
:1003F0000DB407FEFDCF8EB58D9381E0AE3EB807FC
:10040000A9F72A9A0895282F82E48093E90110928F
:10041000EA012A98A9EEB1E0FD0180818EBD0DB4FC
:1004200007FEFDCF8EB5819381E0EB3EF807A9F77B
:100430002A9A81E08093E9013091EA01662311F064
:10044000922F01C090E0822F80958323982B909368
:10045000EB012093EA012A988C918EBD0DB407FE22
:10046000FDCF8EB58D9381E0AC3EB807A9F72A9AEF
:100470000895E89881E08093EE01089581E48093E7
:10048000E9011092EA011092EB012A98E9EEF1E0FD
:1004900080818EBD0DB407FEFDCF8EB5819381E0C6
:1004A000EC3EF807A9F72A9A21E09091EB018091A0
:1004B000EA01982397FF15C02093E90180E8809313
:1004C000EA012A98339780818EBD0DB407FEFDCFD7
:1004D0008EB5819381E0EB3EF807A9F72A9A85E370
:1004E00016C096FF5FC02093E90180E48093EA0183
:1004F0002A98339780818EBD0DB407FEFDCF8EB54F
:10050000819381E0EB3EF807A9F72A9A83E38064A0
:100510008093E9011092EA011092EB012A98E9EE2A
:10052000F1E080818EBD0DB407FEFDCF8EB58193C5
:1005300081E0EC3EF807A9F72A9A9091EA0180E061
:100540002091EB0130E0282B392B3F70A091F40172
:10055000B091F50180E88C932F5F3F4F2A9840E0DF
:1005600050E0FD01E40FF51F80818EBD0DB407FE44
:10057000FDCF8EB580834F5F5F4F4217530788F3DF
:100580002A9A80ED8093E9012A988091E9018EBD35
:100590000DB407FEFDCF8EB58093E9012A9A81E064
:1005A0008093EF011092EE01E89A0895DC0180EA51
:1005B0008093E90181E08093EA018093EB0110923E
:1005C000EC011092ED012A98E9EEF1E080818EBDF8
:1005D0000DB407FEFDCF8EB5819381E0EE3EF807A6
:1005E000A9F78AEA16968C93169717968C93179705
:1005F00083E018968C9318971B961C921B971A965B
:100600001C921A9719961C9219972A9820E030E0AC
:100610000CC0FD01E20FF31F80818EBD0DB407FEFB
:10062000FDCF8EB580832F5F3F4F2617370788F3A6
:100630002A9A80EC8093E9012A988091E9018EBD85
:100640000DB407FEFDCF8EB58093E9012A9A089577
:100650008091F201882319F420E030E006C0109266
:10066000F2012091F6013091F701C90108958093BC
:10067000F10108958091E80108959093F501809328
:10068000F4017093F7016093F601089582EE91E012
:100690000895CF93DF93EB01E091F401F091F50120
:1006A0009589868988839983DF01159686E00D9068
:1006B00001928150E1F78091F4019091F501DC0104
:1006C0001696FC013B9686E001900D928150E1F771
:1006D0002091F4013091F501B901645F7F4F235EF1
:1006E0003F4F48815981CB01B9010E942001888187
:1006F00099810C9699838883DF91CF9108950F9308
:100700001F938C0183E0D8018C938DE011968C931C
:10071000119712961C9212978091A30213968C93B4
:10072000F801349680E2DF011D928A95E9F7409145
:10073000A302CF0168E670E050E00E940E01C801FC
:10074000849663E870E044E350E00E940E011F913C
:100750000F9108950F931F93CF93DF938091F10131
:10076000882399F08091F301882379F46091F60150
:100770007091F7018091F4019091F5010E94D602E9
:100780001092F10181E08093F3018091EE018823C2
:1007900011F00E943E028091EF01882309F47EC08F
:1007A000E091F401F091F5018181823081F0833094
:1007B00020F4813009F070C007C0833009F441C0D3
:1007C000843009F069C03FC01092F30165C0938185
:1007D000913009F061C082818C3029F18D3030F484
:1007E0008830E9F18A3009F057C01BC0833129F104
:1007F0008431A1F1803109F04FC087818093E201FB
:1008000080858093E30181858093E40182858093D4
:10081000E50183858093E60184858093E70186E086
:100820001EC088E01CC0A8EFB1E0379680E20190BE
:100830000D928150E1F787E012C0299A9093E80168
:100840002BC084E00CC08281813030F1833018F0FD
:10085000843011F507C029981092E80183E0809355
:10086000F0011AC0938180E0248130E0282B392BDD
:100870002130310519F02530310521F429981092E5
:10088000E8010AC02230310519F02630310521F483
:10089000299A81E08093E8011092EF019091F00194
:1008A000943009F40FC2953040F4923091F09330B7
:1008B00008F0ADC1992359F013C2973009F4FCC078
:1008C000983009F455C1963009F00AC244C082E05C
:1008D00005C2E091F401F091F50180EB8083E09195
:1008E000F401F091F5019183E091F401F091F501AB
:1008F00080E18283E091F401F091F5011382E091AF
:10090000F401F091F50181E084832091F4013091AC
:10091000F5012A98C901FC019C012B5F3F4F8081A2
:100920008EBD0DB407FEFDCF8EB58193E217F307A0
:10093000B1F72A9AE091F401F091F50180EC8083FF
:10094000E091F401F091F5012A9880818EBD0DB4FB
:1009500007FEFDCFB3C18091C201813041F08130EB
:1009600020F0843008F0BCC141C088E0B7C1E091FC
:10097000F401F091F50180EB8083E091F401F091B6
:10098000F50182E08183E091F401F091F5018AE0C4
:1009900082838091F4019091F50103960E947F0378
:1009A0002091F4013091F5012A98C901FC019C01C4
:1009B000255A3F4F80818EBD0DB407FEFDCF8EB509
:1009C0008193E217F307B1F72A9AE091F401F091CD
:1009D000F50180EC8083E091F401F091F5012A9813
:1009E00080818EBD0DB407FEFDCF68C1E091F4019A
:1009F000F091F50180EB8083E091F401F091F50135
:100A000082E08183E091F401F091F5018CE0828332
:100A10000091F4011091F501F8013396D801139675
:100A20001C928091A40281838091A302828313820D
:100A3000F801379680E2EF0119928A95E9F7409123
:100A4000A302CF0168E670E050E00E940E01095D4C
:100A50001F4F80E4F80111928A95E9F74091A402B2
:100A6000C8016CE670E050E00E940E012091F40194
:100A70003091F5012A98C901FC019C0129593F4F89
:100A800080818EBD0DB407FEFDCF8EB58193E21738
:100A9000F307B1F72A9AE091F401F091F50180ECA7
:100AA0008083E091F401F091F5012A9880818EBD58
:100AB0000DB407FEFDCF02C1E091F401F091F50104
:100AC00080EB8083E091F401F091F50182E0818375
:100AD000E091F401F091F50188E082830091F40146
:100AE0001091F501D8011396E8011B828091A302B1
:100AF00011968C931197F801359680E2EF011992C7
:100B00008A95E9F711964C91CF0168E670E050E0C4
:100B10000E940E01D8019596E8EFF1E080E2019085
:100B20000D928150E1F78091F4019091F5012A989E
:100B30009C01F9012B5B3F4F80818EBD0DB407FEF8
:100B4000FDCF8EB58193E217F307B1F72A9AE091B2
:100B5000F401F091F50180EC8083E091F401F091D3
:100B6000F5012A9880818EBD0DB407FEFDCFA6C089
:100B7000E091F401F091F50180EB8083E091F401C4
:100B8000F091F50182E08183E091F401F091F501AB
:100B900084E18283E091F401F091F50181E08383A7
:100BA000E091F401F091F5018AE08483E091F40191
:100BB000F091F50183E18583E091F401F091F50175
:100BC00016822091F4013091F5012A98C901FC01A7
:100BD0009C01295F3F4F80818EBD0DB407FEFDCF84
:100BE0008EB58193E217F307B1F72A9AE091F401E9
:100BF000F091F50180EC8083E091F401F091F50132
:100C00002A9880818EBD0DB407FEFDCF57C0E091BC
:100C1000F401F091F501EF01239680EB8083A09120
:100C2000F401B091F50182E011968C93A091F4014A
:100C3000B091F50183E112968C938091C201838378
:100C40008091A3028983359680E2DF011D928A9507
:100C5000E9F74091A302CF0168E670E050E00E94FE
:100C60000E011BA21AA28091C301813011F08230C3
:100C700009F48CA38091F4019091F5012A989C01CC
:100C8000F901275D3F4F80818EBD0DB407FEFDCF7A
:100C90008EB58193E217F307B1F72A9AE091F40138
:100CA000F091F50180EC8083E091F401F091F50181
:100CB0002A9880818EBD0DB407FEFDCF8EB580834E
:100CC0002A9A0BC08091F4019091F50166EF71E0D2
:100CD0000E94490381E08093F20185E08093F00156
:100CE000DF91CF911F910F91089584B18E6284B9E5
:100CF000249884E085B980E58CBD81E08DBD8DB5FB
:100D00008EB51092EE011092EF011092F001109248
:100D1000E8011092F1011092F2011092F30181EAC0
:100D200093E09093F5018093F40180E991E0909332
:100D3000F7018093F6010E9441010E94D4018FEFD8
:100D400060E00E94030280EC61E00E94030288E6FA
:100D500090E00E9417018093A3028CE690E00E942D
:100D600017018093A40208950F931F9360914B0382
:100D700070914C0361157105F1F06733710518F43A
:100D800081EA93E013C007ED13E09B012653304046
:100D90006091540370915503C801A9010E9420017C
:100DA00060914B0370914C03C801C6970E943D03AC
:100DB00081E00E9437031F910F9108950E9428033C
:100DC0000895DC0112968D919C911397009729F05C
:100DD0008B51914009F0BDC01DC052962D913C91A0
:100DE000539718968D919C9119971F969C938E936B
:100DF0001E9751963C932E9350971C968D919C91E3
:100E00001D97892B09F060C08BE191E013969C93AC
:100E10008E9312971C968D919C911D97892B69F446
:100E200054968C915497823021F483E054968C939D
:100E30008EC08091530381FF8AC082E054968C93C8
:100E40005497809154039091550317969C938E93D9
:100E5000169780914B0390914C031D969C938E9313
:100E60001C9732C01696ED91FC91179720811E9623
:100E7000ED91FC911F97208316968D919C91179769
:100E8000019617969C938E9316971E968D919C9122
:100E90001F9701961F969C938E931E971C968D917B
:100EA0009C911D9701971D969C938E931C9750962D
:100EB0008D919C915197019751969C938E93509749
:100EC000261711F482E02FC050968D919C91519776
:100ED000892B31F01C968D919C911D97892B11F6D1
:100EE0001C968D919C911D97892BA9F480E01BC0C5
:100EF0001696ED91FC9117978191215030401D96E7
:100F00003C932E931C971796FC93EE931697861797
:100F100011F483E008C01C962D913C911D9721157A
:100F2000310531F781E081FF68CF52962D913C91D8
:100F3000539750968D919C9151972817390749F4F2
:100F400054961C92549713961C921E92129780E00E
:100F5000089513961C921E92129782E00895FC0148
:100F6000148A1586148671876087538B428B778726
:100F70006687518B408B11821082138212820895F2
:100F8000CF93DF93EC018C89863031F48091530349
:100F900082FD02C080E013C02A853B85E0915603A4
:100FA000F0915703628973898C819D816217730761
:100FB00008F0B9010E94F70A86E08C8B81E0DF918E
:100FC000CF910895CF92DF92EF92FF921F93CF932C
:100FD000DF93EC017B016A018A819B81009729F0F4
:100FE0008E3E910509F056C01EC06115710521F4B1
:100FF0001B821A8281E051C0CA01FB0109959B87BF
:101000008A8780915403909155039D838C831C8A19
:101010008091530382FF03C0C601F70109958EEE4C
:1010200090E09B838A838C89863031F580915303CD
:1010300080FF22C08A859B85E0915603F09157037B
:10104000428953892C813D814817590758F4841BE4
:10105000950B9B878A8782899389280F391F3D8347
:101060002C8306C0280F391F3D832C831B861A86CC
:1010700081E08C8B11E001C010E0CE010E94C0071E
:10108000182311F480E009C08A859B85892B09F01B
:10109000BFCF1C8A1B821A8282E0DF91CF911F9101
:1010A000FF90EF90DF90CF9008951F93CF93DF9341
:1010B000EC018A819B81009729F08F3C910509F012
:1010C00048C011C04115510521F41B821A8281E0EC
:1010D00043C07D836C835B874A871C8A35C08FEC55
:1010E00090E09B838A838C89863031F5809153030D
:1010F00080FF22C08A859B85E0915603F0915703BB
:10110000428953892C813D814817590758F4841B23
:10111000950B9B878A8782899389280F391F3D8386
:101120002C8306C0280F391F3D832C831B861A860B
:1011300081E08C8B11E001C010E0CE010E94C0075D
:10114000182311F480E008C08A859B85892B39F625
:101150001C8A1B821A8282E0DF91CF911F91089531
:101160000F931F930E94DE0690934C0380934B03D2
:10117000892B81F10091AD031091AE0380E098E0DE
:101180000E94F30A0817190769F481E00E940D0B09
:1011900080914B0390914C03892B09F458C00E9415
:1011A000C81115C00091AD031091AE0386E098E020
:1011B0000E94F30A0817190709F049C00E94791321
:1011C00080914B0390914C03892B09F440C00E94FD
:1011D000B4063DC088E192E00E94C209892BB9F1B2
:1011E00088E192E00E94B00988E593E0909357036C
:1011F0008093560382E00E940D0B80914B039091E7
:101200004C03892B21F00E94C8110E94B4068091E2
:101210004B0390914C03892B71F488E292E00E9479
:10122000C209892B41F088E292E00E94B0090E9435
:1012300062110E94B40680E292E00E94C209892BEA
:1012400031F080E292E00E94B0090E9435111F91B6
:101250000F910895CF92DF92EF92FF920F931F9319
:101260000E944603FC0110810181F280E380D4805A
:10127000C58088E192E044EF51E060E070E00E94B8
:10128000E40980E292E040E157E260E070E00E9411
:10129000E40988E292E040E355E760E070E00E94F4
:1012A000E4090E94B80A1093300200933102F092D0
:1012B0003202E0923302D0923402C09235020E9490
:1012C0002F159091B80180E04091B90150E0482B72
:1012D000592B3091B60120E08091B70190E0822B2C
:1012E000932B90939D0380939E0350939F03409371
:1012F000A0039091BC0180E04091BD0150E0482BDB
:10130000592B3091BA0120E08091BB0190E0822BF3
:10131000932B909395038093960350939703409358
:1013200098039091C00180E04091C10150E0482BAA
:10133000592B3091BE0120E08091BF0190E0822BBB
:10134000932B9093990380939A0350939B0340931C
:101350009C031F910F91FF90EF90DF90CF90089525
:10136000FC0180819181A281B381248135814681F4
:101370005781820F931FA41FB51F80839183A2837F
:10138000B38308950F931F938C010E943E01E0E008
:10139000F0E0D8012D913D914D915C911397621B26
:1013A000730B840B950B14962D913D914D915C918F
:1013B0001797621773078407950710F0E1E0F0E0D4
:1013C000CF011F910F9108950F931F938C01FC0182
:1013D00044835583668377830E943E01F8016083CE
:1013E0007183828393831F910F910895FC01538130
:1013F000560F50935203272F33274281420F4093B9
:101400005103A181A0935003E081E0934F03842F07
:1014100090E08217930748F48A2F8F5F80935003E0
:10142000882319F4EF5FE0934F03852F90E07070ED
:101430008617970790F4842F8F5F8093510388233A
:1014400061F4809150038F5F80935003882329F4C7
:1014500080914F038F5F80934F030895EFEAF3E08D
:1014600040E050E0308120E08181B901680F711DBA
:10147000460F571F4617570710F44F5F5F4F3296BE
:1014800073E0E23CF70770F383E0E23CF80751F4C5
:10149000908180E0480F591F4817590718F44F5F93
:1014A0005F4F06C04115510519F42FEF3FEF02C001
:1014B000342F252FC90108958091B203682F70E061
:1014C000645170409091B10380E0680F791FAB01C7
:1014D0004A5F5F4FEBEBF3E0308120E08181D9017F
:1014E000A80FB11D4A0F5B1F4A175B0710F44F5F2F
:1014F0005F4F3296B3E0E23CFB0770F383E0E23CDF
:10150000F80749F4908180E0480F591F48175907A0
:1015100010F44F5F5F4F6E537C4FE3ECF3E00EC06F
:10152000308120E08181D901A80FB11D4A0F5B1FD6
:101530004A175B0710F44F5F5F4F3296E617F707C5
:1015400078F3E617F70751F4908180E0480F591FB0
:101550004817590718F44F5F5F4F06C041155105F2
:1015600019F42FEF3FEF02C0342F252FC901089542
:1015700010929403109293031092710381E0809370
:101580003E0280E094E090933D0280933C020895F7
:101590009C018091930390919403892B39F41092CC
:1015A0003E023093940320939303089581E0809347
:1015B0003E020895BC01809156039091570308960E
:1015C0000E94F609E0915603F091570380914F0372
:1015D0008087809150038187809151038287809119
:1015E000520383870895282F892F922F0895AC01E5
:1015F000FB011616170684F460933305F093340547
:1016000020914D0330914E038217930729F0C901B1
:10161000BA01AF010E94200108950F931F93CF9349
:10162000DF93C0915603D091570327ED33E03093F9
:1016300055032093540330934E0320934D0383307E
:1016400059F4898D8F70833009F004C6888999898F
:10165000892B09F0FFC589C0823009F08AC08091CA
:101660003B028F5F80933B02882399F480913A027A
:101670008F5F80933A02882361F4809139028F5FF3
:1016800080933902882329F4809138028F5F8093F8
:10169000380210924C0310924B03109234051092B2
:1016A0003305298D273011F0253041F48A8D8F5F65
:1016B0008A8F883709F0CEC5198ECCC5222309F44C
:1016C000C9C588899989892B09F44BC08A8D8150B5
:1016D0008A8F8F5F09F0BEC53B8D383029F02150CD
:1016E000223048F4353039F4198E80E88093530362
:1016F0000E94641465C4353010F080E307C083E0B5
:1017000090E002C0880F991F3A95E2F78A8F8B8D7F
:101710008F5F8B8F898D90E08F70907083309105F3
:10172000D1F08430910544F48130910509F42EC242
:10173000029709F08FC50CC08630910509F4D3C318
:101740008830910509F4CFC3049709F083C5CBC352
:101750001092D0031EC284E0809353030E9464144D
:1017600064C42F70233009F075C588E0809353035B
:101770001BC48901085210408091AF03853409F0E1
:1017800069C59091B10380E02091B203AC01420F92
:10179000511D80914B0390914C038417950708F4D9
:1017A00059C550934C0340934B038091B50390E08F
:1017B0008F739070892B09F04DC58091B6038823F3
:1017C00009F048C520919D0330919E038091C4018A
:1017D0009091C5012817390731F480919F039091AA
:1017E000A003892BA1F08091BF039091C0038217C1
:1017F000930709F02FC52091C1033091C203809156
:101800009F039091A0032817390709F023C50E9470
:101810002E0A8F5F9F4F09F01DC58091B803863057
:10182000D1F1813009F016C58091C303883009F0E9
:1018300011C51092C3038091C5039091C603EFEFC9
:10184000873F9E0710F0099601C008969093C60343
:101850008093C5038091BB039091BC039093C00318
:101860008093BF038091BD039091BE039093C20308
:101870008093C10380919D0390919E039093BC033C
:101880008093BB0380919F039091A0039093BE032C
:101890008093BD03E3C40E945C0A8F5F9F4F09F0F1
:1018A000D9C4C8E5D3E0898D882329F12091C503E7
:1018B0003091C6038C819D8128173907E1F420916E
:1018C000C3033091C4038E819F812817390799F48F
:1018D0002091BB033091BC03888199812817390777
:1018E00051F42091BD033091BE038A819B8128175A
:1018F000390709F467C1EB9623E0C835D20799F29E
:1019000090F28091D0038F738230F1F48091C503FF
:101910009091C603909341028093400210923E0240
:1019200041E00EC02091400230914102809193032A
:10193000909194032817390709F470C040933E0230
:1019400080913E02882371F38091D00382FD82C48E
:1019500084E1F80181A388E290E090934C038093A6
:101960004B0380E580A39091CA038091CE03838FBF
:101970003091C9038091CD03828F368F4091C80387
:101980008091CC03818F458F2091C70320933E0225
:101990008091CB03808F248F9F5F978F992361F471
:1019A000832F8F5F868F882339F4842F8F5F858FF5
:1019B000882311F42F5F248F2091C3033091C40337
:1019C00030934102209340028091C5039091C60359
:1019D000F801958B848B378B268B8091BB0390917C
:1019E000BC039093C0038093BF038091BD0390918B
:1019F000BE039093C2038093C10380919D03909195
:101A00009E039093BC038093BB0380919F039091AE
:101A1000A0039093BE038093BD03DEC310923E02E9
:101A2000C0E0D0E021E014C080917103882319F454
:101A3000C8E5D3E014C0873049F4209729F090918D
:101A400072038A8D891710F4C8E5D3E020933E0213
:101A500080913E02882341F3209709F4FBC3D09381
:101A60005703C093560383E08A8F888F1E8A84E0D1
:101A70008F8B1B8E8091C5039091C6039D838C83B1
:101A80008091C3039091C4039F838E838091BB0395
:101A90009091BC03998388838091BD039091BE038C
:101AA0009B838A8381E0898F809138028C87809123
:101AB00039028D8780913A028E8780913B028F8711
:101AC00081E090E0998B888B8091CA038B8780910D
:101AD000C9038A878091C80389878091C703888753
:101AE00081E090E00E94DA0A8091CF0390E0807F4D
:101AF0009070813591050CF449C010923E0234C0BB
:101B0000F901EF55FC4F86A980933F028823F1F13C
:101B1000813021F44F5F40933E0226C08230C1F4F1
:101B200087A98430A9F430AD20E081AD90E0822B0C
:101B3000932B9093410280934002F1E08A349F07F7
:101B400010F089E491E09B8B8A8B9D8B8C8B1EC05F
:101B500090913E02E92FF0E0EF55FC4F87A98823D2
:101B6000A9F0890F80933E0240913E02242F30E07D
:101B70008091CF0382958F7090E00597880F991F11
:101B8000880F991F281739070CF4BACF80E180938A
:101B9000D0038091D00382608093D00382E0809351
:101BA000D70384E08093D80381E08093D90389E44C
:101BB0008093DA038CE290E090934C0380934B0384
:101BC00080E6B7C2D0935703C093560310925303D5
:101BD0008091D003482F50E082FF03C0198E80E22D
:101BE00051C28091CF0382958F70880F880F8093A8
:101BF0003E0220914B0330914C0324513040281B6E
:101C0000310930934C0320934B03898D8F708230C0
:101C100029F44F7350704231510509F1232B39F4E7
:101C20008091D00390E083709070892BC1F09091E7
:101C3000C7038885981709F072C29091C8038985F7
:101C4000981709F06CC29091C9038A85981709F01A
:101C500066C29091CA038B85981709F060C2809183
:101C6000D00384FF51C0688979896115710509F431
:101C70004BC0CE010C960E94F6092091CB038091B7
:101C80004F03281709F040C09091CC038091500376
:101C90009817D1F59091CD03809151039817A1F534
:101CA0009091CE0380915203981771F52C87809103
:101CB00050038D87809151038E87809152038F87C7
:101CC0008B8D8823D1F42E89988D8A8D981B822F35
:101CD000869586958695981B392F320F3E8B8F8976
:101CE000282F26952695821B97FD9195890F8F8B1E
:101CF000369536953695830F888F81E08093530310
:101D0000888D8A8F198A188A898D282F30E0C90119
:101D10008F7090708430910509F4B9C185309105B8
:101D20005CF48230910591F1833091050CF0B1C0E3
:101D3000019709F08FC210C08630910509F4E7C100
:101D4000863091050CF4C3C18730910509F4E7C1D1
:101D5000089709F07FC290C18091530380FF7AC237
:101D600083E0898F80E480935303198A188A209135
:101D70004B0330914C032115310509F411C182E464
:101D800080935303C9010E94DA0A0AC18091530368
:101D900080FF74C08091D0038F73823109F06EC0D0
:101DA0008091CF0390E0807F9070813591050CF495
:101DB00049C010923E0234C0F901EF55FC4F86A98C
:101DC00080933F028823F1F1813021F44F5F4093EB
:101DD0003E0226C08230C1F487A98430A9F430AD18
:101DE00020E081AD90E0822B932B90934102809371
:101DF000400221E08A34920710F089E491E09B8B45
:101E00008A8B9D8B8C8B1EC090913E02E92FF0E057
:101E1000EF55FC4F87A98823A9F0890F80933E02D4
:101E200040913E02242F30E08091CF0382958F7045
:101E300090E00597880F991F880F991F2817390779
:101E40000CF4BACF83E0898F8091C7038887809193
:101E5000C80389878091C9038A878091CA038B87C9
:101E600081E090E00E94DA0A82E480935303198AA9
:101E7000188A10924C0310924B0392C080E2809318
:101E800053030E946414E0915603F0915703118E9E
:101E90005BCD8091D00380FF2AC024FD28C08889B3
:101EA0009989892B09F0D6C180914B0390914C03FD
:101EB00001960E94DA0A20915303822F8061809359
:101EC000530380914B0390914C03892B19F02261AD
:101ED000209353030E94641481E090E0998B888BD7
:101EE00088E0898F1B8E81E18093D0031BC185FF21
:101EF00021C06091D503362F20E04091D60350E0F9
:101F0000242B352B8091540390915503820F931FFE
:101F10009093550380935403962F80E0842B952B48
:101F200020914B0330914C03281B390B30934C0309
:101F300020934B0320914B0330914C032115310525
:101F400059F0898D84FD08C080915303826080938D
:101F50005303C9010E94DA0A9091D10380E02091D5
:101F6000D203820F911D90934102809340022C89ED
:101F70003D892817390710F0892B21F4309341024D
:101F80002093400280914002909141029B8B8A8B6A
:101F90008091530390E083709070892B09F45AC1AB
:101FA00010923405109233050E94641480915303FB
:101FB000282F85FF07C01092340510923305198E23
:101FC00084E192CF84FF0AC0109234051092330549
:101FD00081E090E0998B888B84E083CF80913305FA
:101FE00090913405892B01F120FF02C0198A188ACB
:101FF000888999890097A1F42A893B8980913305C2
:10200000909134052817390720F430933405209334
:1020100033058091330590913405998B888B04C0EA
:1020200090933405809333051B8E80914D039091DE
:102030004E03909355038093540380913305909100
:102040003405892B59F088899989009739F0889649
:1020500090934C0380934B0388E10BC08091530312
:1020600081FFF8C088E290E090934C0380934B038B
:1020700080E18093D0035CC08091530380FFEAC06D
:10208000198E80E1809353030E946414E3C0809111
:102090004B0390914C03009711F00E94DA0A809153
:1020A000D0039091530380FF0BC090FF06C087E0E0
:1020B000898F1A8E198A188A19C086E0898F16C0EE
:1020C00090FF1EC085E0898F198A188AC3C080914D
:1020D0004B0390914C03009711F00E94DA0A809113
:1020E000D00380FF0DC087E0898F1A8E81E090E0D9
:1020F0000E94DA0A80E1809353030E9464140FC0A7
:1021000080914B0390914C03892B49F4A3C080919B
:10211000530380FF9FC087E0898F1A8E9BC080E1A8
:10212000F80181A388E290E090934C0380934B03E5
:1021300080E58093CF0388858093CB038985809346
:10214000CC038A858093CD038B858093CE038C85C9
:102150008093C7038D858093C8038E858093C903C0
:102160008F858093CA0386E08093B8038C819D811C
:102170009093C4038093C3038E819F819093C60381
:102180008093C50380919D0390919E039093BC031F
:102190008093BB0380919F039091A0039093BE0313
:1021A0008093BD03888199819093C0038093BF037E
:1021B0008A819B819093C2038093C103898D84FFA0
:1021C00005C01092D2031092D10306C081E0809323
:1021D000D10389E48093D20380E48093B703809194
:1021E0004C038093B10380914B038093B203109210
:1021F000D6031092D5031092D4031092D3030E94F9
:102200005C0A809590959093D4038093D30385E4E2
:102210008093AF031092B0031092B6031092B503EF
:102220008091360290913702019690933702809305
:1022300036029093B3038093B4031092BA031092C2
:10224000B9030E942E0A809590959093BA038093CB
:10225000B90304C010924C0310924B031092530325
:10226000DF91CF911F910F9108958091A0028F5F10
:102270008093A00210929E024BE01FC0249FF001A9
:102280001124EE5BFD4F8281938120813181822B6D
:10229000932B892B69F08091A00290E02285821B0C
:1022A00091098837910524F01082118212821382DD
:1022B00080919E028F5F80939E0220919E02283023
:1022C000E8F2089581EA93E06FEF70E046E050E0B5
:1022D0000E942901A1ECB3E0E0E3F2E086E0019086
:1022E0000D928150E1F7A7EAB3E0E0E3F2E086E087
:1022F00001900D928150E1F7A7EBB3E0E0E3F2E04B
:1023000086E001900D928150E1F720919D0330917C
:102310009E033093C8032093C70380919F0390913D
:10232000A0039093CA038093C9033093BE03209304
:10233000BD039093C0038093BF0380E092E090932D
:10234000B6038093B50380E091E09093B00380934F
:10235000AF0388E090E09093B2038093B10386E0EE
:102360008093B30384E08093B40388E096E0909375
:10237000AE038093AD0387ED93E090935503809374
:1023800054038AE290E090934C0380934B030895AA
:102390004091BF035091C0038091C8019091C90141
:1023A0004817590789F48091C1039091C2038F5F48
:1023B0009F4F51F4A1EAB3E0ECECF1E086E001902C
:1023C0000D928150E1F7CFC080919D0390919E03C3
:1023D000842795272091990330919A038223932390
:1023E000892B91F46091C1037091C20380919F0386
:1023F0009091A0038627972720919B0330919C03FF
:1024000082239323892B89F08091950390919603E1
:1024100090939B0280939A028091970390919803E6
:1024200090939D0280939C0208C050939B0240931E
:102430009A0270939D0260939C0210929E0260919A
:102440009A0270919B0240919C0250919D02E0E0A3
:10245000F0E020E03BE013C0239FF0011124EE5B8D
:10246000FD4F808191816817790741F482819381C2
:102470004817590719F420939E026DC02F5F28302A
:1024800058F320939E02283009F065C081EA93E05A
:102490006FEF70E046E050E00E942901E1ECF3E0CC
:1024A00086E0DF011D928A95E9F77A97A0E3B2E012
:1024B00086E00D9001928150E1F7A7EBB3E0E0E3F5
:1024C000F2E086E001900D928150E1F780919A024E
:1024D00090919B029093C8038093C70380919C02C4
:1024E00090919D029093CA038093C90380919D03AC
:1024F00090919E039093BE038093BD0380919F03B0
:102500009091A0039093C0038093BF0380E091E07B
:102510009093B6038093B5039093B0038093AF0379
:1025200088E090E09093B2038093B10386E08093BB
:10253000B30384E08093B40388E096E09093AE0305
:102540008093AD0387ED93E09093550380935403FC
:102550008AE290E01CC0A1EAB3E0349686E00190E4
:102560000D928150E1F7A7EAB3E0E0E3F2E086E004
:1025700001900D928150E1F788E090E09093AE03D6
:102580008093AD0380914B0390914C030E969093F2
:102590004C0380934B030895DF92EF92FF920F93C9
:1025A0001F93CF93DF93DC01062FD72E10929E024C
:1025B000E0E0F0E060E01BE02BC0619FF00111243F
:1025C000EE5BFD4F408151814115510501F12281A2
:1025D000338121153105D9F08D919C911197841784
:1025E0009507A9F412968D919C91139782179307E2
:1025F00071F460939E02EF012496802F9D2D9C0123
:10260000D90186E00D9009928150E1F767C06F5FB4
:10261000683098F210929E0220E03BE011C0239FA8
:10262000F0011124EE5BFD4F80819181892B39F4FB
:1026300082819381892B19F420939E023CC02F5FE5
:10264000283068F320939E022830A9F51092A10249
:1026500010929F021091A002C12FD0E060E070E0C4
:1026600040E08BE0E82EF12C18C0842F90E08E9D86
:10267000F0018F9DF00D9E9DF00D1124EE5BFD4F3E
:1026800052859E01251B3109872F90E08217930701
:102690001CF4712F751B642F4F5F483030F360932B
:1026A0009F027093A10260939E028BE0689FF001ED
:1026B0001124EE5BFD4F8D919D910D90BC91A02D4D
:1026C000EF0189939993A993B993202F3D2DC901C7
:1026D000DC0186E00D9009928150E1F78091A00223
:1026E0008287DF91CF911F910F91FF90EF90DF9044
:1026F0000895CF93DF9380914B0390914C038A9779
:1027000028F410924C0310924B03A6C010924C0375
:1027100010924B03C1EAD3E08091B5039091B603C8
:1027200021E08030920729F08050924009F094C057
:1027300076C02091C7033091C80380919D0390918A
:102740009E032817390709F087C02091C9033091EB
:10275000CA0380919F039091A0032817390709F0BD
:102760007BC0CE014C96BE016A5E7F4F0E94CC12A8
:1027700080E092E09093B6038093B503DE019096DB
:10278000FE01769686E001900D928150E1F7A7EB6D
:10279000B3E0E0E3F2E086E001900D928150E1F7D2
:1027A000A7EAB3E0E0E3F2E086E001900D92815009
:1027B000E1F7E1EAF3E0DF01909686E00D90019207
:1027C0008150E1F78091BD039091BE039093C803BF
:1027D0008093C7038091BF039091C0039093CA0375
:1027E0008093C90380919D0390919E039093BE03B3
:1027F0008093BD0380919F039091A0039093C003A9
:102800008093BF0388E096E09093AE038093AD037E
:102810008AE290E090934C0380934B031DC020917B
:10282000C7033091C80380919D0390919E032817A0
:10283000390791F42091C9033091CA0380919F0315
:102840009091A0032817390739F4CE014C96BE01A8
:102850006A5E7F4F0E94CC12DF91CF9108950E9453
:10286000B0080E94AA0308950E94750680E069E3FB
:1028700072E040E050E00E94551502C00E94AA0399
:102880000E943A038130D1F70E942A090895CF931C
:10289000DF9387EB90E00E941701E0915603F091DF
:1028A0005703C289D3898C179D0708F4EC018091E6
:1028B00054039091550367EB70E0AE010E940E0146
:1028C000CE01DF91CF910895CF93DF93C09156034E
:1028D000D09157038091530386FF09C0BE016F5CFE
:1028E0007F4FCE014C964AE050E00E94AF078C8D9E
:1028F0009D8D8337910509F476C08437910588F45E
:102900008137910509F452C08237910508F05DC006
:1029100087359105B9F08F35910559F1892B71F003
:1029200099C08537910509F47AC08537910508F477
:1029300068C08637910509F08DC07FC087E590E0BB
:102940009D8F8C8FCE014C9660E20E94E106882319
:1029500009F482C0CE01C19662ED71E044E050E01E
:102960000E943001009709F072C08FE590E09D8FC2
:102970008C8FCE014C9660E20E94E106882309F418
:102980006BC089A98F3209F062C08AA9803209F030
:102990005EC08091A5029091A60201969093A60236
:1029A0008093A50281E790E09D8F8C8FCE014C969D
:1029B00060E071E041E150E00E945508882309F48D
:1029C0004BC082E790E09D8F8C8FCE014C9662E1E8
:1029D00071E049E150E00E9455088823E9F183E75E
:1029E00090E09D8F8C8FCE014C966CE271E042E0BE
:1029F00050E00E945508882379F184E790E09D8F8C
:102A00008C8FCE014C966FE271E04AE150E00E945B
:102A10005508882309F185E790E09D8F8C8FCE01C2
:102A20004C966AE471E04BE650E00E94550888231A
:102A300099F086E790E09D8F8C8FCE014C9667E4ED
:102A400074E140E050E00E94E207882329F080E131
:102A5000809353031D8E1C8EDF91CF91089580E0EB
:102A600090E50E94C80A089582EA92E00E942F141D
:102A70006091A5027091A60288E393E00E94F2188B
:102A8000089582EA92E00E94341488E393E040E8DB
:102A900055E260E070E00E949F1608950E9428169B
:102AA0000E9441150E943415FDCF823000F5E82FB9
:102AB000F0E0EE0FFF1FE955FD4F7183608388231F
:102AC00019F08130A1F408C0809169008C7F842BBB
:102AD00080936900E89A089580916900440F551F1A
:102AE000440F551F837F842B80936900E99A0895D2
:102AF0001F920F920FB60F9211242F933F934F9373
:102B00005F936F937F938F939F93AF93BF93EF9355
:102B1000FF938091A7029091A802892B29F0E09160
:102B2000A702F091A8020995FF91EF91BF91AF9193
:102B30009F918F917F916F915F914F913F912F91D5
:102B40000F900FBE0F901F9018951F920F920FB607
:102B50000F9211242F933F934F935F936F937F9323
:102B60008F939F93AF93BF93EF93FF938091A902AD
:102B70009091AA02892B29F0E091A902F091AA0272
:102B80000995FF91EF91BF91AF919F918F917F91A7
:102B90006F915F914F913F912F910F900FBE0F90CA
:102BA0001F9018951F920F920FB60F9211242F931A
:102BB0003F938F939F93AF93BF938091AF02909178
:102BC000B002A091B102B091B2023091B30201966D
:102BD000A11DB11D232F2D5F2D3720F02D570196FC
:102BE000A11DB11D2093B3028093AF029093B00258
:102BF000A093B102B093B2028091AB029091AC026B
:102C0000A091AD02B091AE020196A11DB11D8093BD
:102C1000AB029093AC02A093AD02B093AE02BF9111
:102C2000AF919F918F913F912F910F900FBE0F9079
:102C30001F9018958FB7F8942091AF023091B00291
:102C40004091B1025091B2028FBFB901CA010895FB
:102C5000789484B5826084BD84B5816084BD85B577
:102C6000826085BD85B5816085BDEEE6F0E080813E
:102C700081608083E1E8F0E08081826080838081F0
:102C800081608083E0E8F0E0808181608083E1EB17
:102C9000F0E0808184608083E0EBF0E080818160FF
:102CA0008083EAE7F0E080818460808380818260B5
:102CB000808380818160808380818068808310929E
:102CC000C10008951F920F920FB60F9211242F93F7
:102CD0003F934F935F936F937F938F939F93AF93A4
:102CE000BF93EF93FF934091C600E0913403F091BE
:102CF0003503CF01019660E870E00E9421199C0124
:102D000080913603909137032817390739F0EC5436
:102D1000FD4F40833093350320933403FF91EF91AF
:102D2000BF91AF919F918F917F916F915F914F91E3
:102D30003F912F910F900FBE0F901F9018955F92AB
:102D40006F927F928F929F92AF92BF92CF92DF92BB
:102D5000EF92FF920F931F93CF93DF93EC013A0111
:102D60004B01413482E458078FE0680780E0780720
:102D70000CF07FC060E874E88EE190E0A40193015C
:102D80000E9456192150304040405040CA01B901BC
:102D900022E030E040E050E00E94561959016A01FB
:102DA000A6019501209530954095509594E0220F0D
:102DB000331F441F551F9A95D1F760E074E284EFEA
:102DC00090E00E945619CA01B9012FEF30E040E0AF
:102DD00050E00E940219A40193010E945619C901F2
:102DE00081509F4F181619061CF4522E5A9403C096
:102DF00055245394521A60E079E08DE390E0A401E9
:102E000093010E9456192150304040405040CA0161
:102E1000B90122E030E040E050E00E9456192095D0
:102E200030954095509583E0220F331F441F551F66
:102E30008A95D1F760E074E284EF90E00E94561921
:102E4000CA01B9012FEF30E040E050E00E940219C2
:102E5000A40193010E945619C90181509F4F181671
:102E600019061CF4822F815002C081E0821B851557
:102E700000F5E885F98581E090E00A8802C0880FB6
:102E8000991F0A94E2F7808360E079E08DE390E097
:102E9000A40193010E9456192150304040405040F7
:102EA000CA01B90122E030E040E050E00E9456192A
:102EB00004C0E885F98510829501EC81FD8130839D
:102EC000EE81FF812083EA85FB85208141E050E08F
:102ED000CA010E8402C0880F991F0A94E2F7282BBA
:102EE0002083EA85FB852081CA010F8402C0880FF8
:102EF000991F0A94E2F7282B2083EA85FB858081BD
:102F0000088802C0440F551F0A94E2F7842B80837F
:102F1000DF91CF911F910F91FF90EF90DF90CF90B5
:102F2000BF90AF909F908F907F906F905F9008952B
:102F3000FC01A085B18521898C9190E0022E02C010
:102F4000959587950A94E2F780FFF6CF0484F5857E
:102F5000E02D608308958BED91E090933903809389
:102F6000380384EB92E090933B0380933A0385EC23
:102F700090E090933D0380933C0384EC90E0909329
:102F80003F0380933E0380EC90E090934103809355
:102F9000400381EC90E0909343038093420386ECDE
:102FA00090E0909345038093440384E0809346032C
:102FB00083E08093470387E08093480385E0809314
:102FC000490381E080934A0308950F931F93CF93A1
:102FD000DF938C01EB0109C02196D801ED91FC91A2
:102FE0000190F081E02DC801099568816623A1F761
:102FF000DF91CF911F910F910895EF92FF920F9360
:103000001F93CF93DF938C017B01EA010CC0D701A2
:103010006D917D01D801ED91FC910190F081E02D41
:10302000C80109952197209791F7DF91CF911F91C2
:103030000F91FF90EF9008950F931F938C01DC0187
:10304000ED91FC910190F081E02D6DE00995D801A2
:10305000ED91FC910190F081E02DC8016AE00995A5
:103060001F910F9108952F923F924F925F926F920E
:103070007F928F929F92AF92BF92CF92DF92EF9208
:10308000FF920F931F93DF93CF93CDB7DEB7A09737
:103090000FB6F894DEBF0FBECDBF1C016A017B01E5
:1030A000411551056105710549F4DC01ED91FC9173
:1030B0000190F081E02D60E3099554C088249924A3
:1030C0005401422E55246624772401E010E00C0FB1
:1030D0001D1F080D191DC701B601A30192010E9411
:1030E0003419F80160830894811C911CA11CB11C47
:1030F000C701B601A30192010E943419C901DA0186
:103100006C017D01C114D104E104F104F1F681E008
:10311000E82EF12CEC0EFD1EE80CF91C3E01089483
:10312000611C711CD501C4010197A109B1096C0191
:10313000C818D90814C0F601EE0DFF1D60816A3071
:1031400010F4605D01C0695CD101ED91FC910190CA
:10315000F081E02DC10109950894E108F1086E1491
:103160007F0449F7A0960FB6F894DEBF0FBECDBF1F
:10317000CF91DF911F910F91FF90EF90DF90CF9053
:10318000BF90AF909F908F907F906F905F904F9087
:103190003F902F900895EF92FF920F931F93CF933C
:1031A000DF93EC017A018B0177FF0FC0E881F98191
:1031B0000190F081E02D6DE2099510950095F09455
:1031C000E094E11CF11C011D111DCE01B801A70105
:1031D0002AE00E943318DF91CF911F910F91FF9049
:1031E000EF9008950F931F938C01AB01662757FD55
:1031F0006095762F0E94CB18C8010E941C181F9161
:103200000F910895629FD001739FF001829FE00D9E
:10321000F11D649FE00DF11D929FF00D839FF00D55
:10322000749FF00D659FF00D9927729FB00DE11D01
:10323000F91F639FB00DE11DF91FBD01CF011124DE
:10324000089597FB092E07260AD077FD04D049D0B0
:1032500006D000201AF4709561957F4F0895F6F717
:10326000909581959F4F0895A1E21A2EAA1BBB1B32
:10327000FD010DC0AA1FBB1FEE1FFF1FA217B30742
:10328000E407F50720F0A21BB30BE40BF50B661F58
:10329000771F881F991F1A9469F76095709580951C
:1032A00090959B01AC01BD01CF01089597FB092EBC
:1032B00005260ED057FD04D0D7DF0AD0001C38F405
:1032C00050954095309521953F4F4F4F5F4F089552
:1032D000F6F790958095709561957F4F8F4F9F4F32
:1032E0000895AA1BBB1B51E107C0AA1FBB1FA6174D
:1032F000B70710F0A61BB70B881F991F5A95A9F79F
:1033000080959095BC01CD010895EE0FFF1F0590AB
:0A331000F491E02D0994F894FFCF2A
:10331A00485454502F312E3120323030204F4B0D2B
:10332A000A00436F6E74656E742D547970653A2085
:10333A00746578742F68746D6C0D0A000D0A004864
:10334A00656C6C6F20576F726C642C204920616D1C
:10335A00205769536869656C64003C63656E7465DF
:10336A00723E3C68313E48656C6C6F20576F726CD8
:10337A00642121204920616D204D617474277320D6
:10338A005769536869656C642E202046696E64200B
:10339A006D6520696E207765627365727665722E37
:1033AA006320756E6465722050534F434B5F5345DB
:1033BA004E445F5354522E3C2F68313E3C2F636576
:1033CA006E7465723E00C0A80295C0A80201FFFF94
:1033DA00FF00020100000000FFFFFFFFFFFFFFFFE9
:1033EA00FFFF4745542000000000009817E517FD2D
:0233FA001700BA
:00000001FF
